S01B0000686F745F737761705F636F6E74726F6C6C65722E7372656301
S113000038230020913300008D3300008D3300002D
S113001000000000000000000000000000000000DC
S11300200000000000000000000000008D3300000C
S113003000000000000000008D3300008D3300003C
S11300408D3300008D330000650900008D330000FE
S1130050612300008D3300008D3300003D29000032
S11300604D2900005D2900006D2900007D29000054
S11300708D2900002919000089190000E9190000E0
S1130080491A0000A91A0000091B0000691B00009E
S1130090C91B00008D3300008D3300008D33000038
S11300A08D33000010B5064C2378002B07D1054B87
S11300B0002B02D0044800E000BF0123237010BDD0
S11300C018000020000000008839000008B5084B23
S11300D0002B03D00748084900E000BF0748036825
S11300E0002B00D108BD064B002BFBD09847F9E745
S11300F000000000883900001C000020883900003E
S113010000000000042330B51D4A011CD0690343DC
S11301102020D3611B4BFF301A8B02431A831A7DB4
S11301201B38FF38D20700D430BDCC784A78A404F9
S1130130D20122430C78C0252402201CAD002840A3
S11301400243141C1E22887840001040221CC02444
S113015002430879A40200042040082402435A60A0
S11301609A6809485203520F944004809A68428066
S11301704A780271188BC005C00F0001D4E7C0464D
S1130180000400400040004134000020F0B5354C2C
S1130190258863886B43834202D21823181CF0BD60
S11301A06B1E0342F9D117239542F7D32E4D123B10
S11301B02E7DF607F2D501272C4B2B802B7D2A4E62
S11301C01F42FBD02025338BFF352B433383470855
S11301D0002A1AD0531E9C467F00002306E0B5B2C5
S11301E002339BB23D8002379A4207D9CE5C634505
S11301F0F5DACD186D782D023543F1E72379002B1C
S113020001D13F2A04D90023C8E72379002BFAD16E
S1130210628823885343984205D9154BC21880231A
S11302209B019A42B9D8802220210F4BD2025C68EC
S1130230FF3122435A601A8B0A431A831A7DD2076C
S113024002D45C600523A9E701218008094A400023
S1130250D8611A801A7D1142FCD0034B5C600023E4
S11302609CE7C046340000200040004144A5FFFF45
S113027000C07FFF04A5FFFF114B18211A885B887B
S11302805343834201D2081C70479200013A104242
S1130290F9D10C4B13391A7DD207F4D520211A8BCE
S11302A0FF310A431A838008074A40001F39D86186
S11302B0FF391A801A7D1142FCD00021E3E7C046C1
S11302C0340000200040004102A5FFFFF0B557466E
S11302D045464E469246E0B49C46051C07683B8A58
S11302E0DB0BFCD14900C9B2397529680124022607
S11302F007E0887B064207D1013328899BB29842E4
S113030043D9887B0442F4D00223887B034242D041
S11303108B73098A41200B4238D1202290461C3A23
S11303200023012002269146534540D04246398A93
S11303300A423ED02C68218AC90BFCD1624612685D
S1130340D15C39762C68002107E0A27B164207D1E4
S113035001312A8989B28A4227D9A27B1042F4D07A
S11303604A46398A01330A42DED01E22AB7A101C77
S1130370002B0BD029680B8ADB0BFCD1C0217B68D6
S113038089020B437B60101C00E012201CBC9046C9
S11303909946A246F0BD0B8A5B07BED5C0224B68C6
S11303A0920213434B601820F0E71222DEE700228A
S11303B0DCE74120EAE7C046F0B54D4644465F46D7
S11303C05646F0B4071C5A4B83B03960081C161CFF
S11303D00D1C994698470124831CA0469C40231C6D
S11303E054490D300A6AC4B213436A460B62337926
S11303F069461370201C504B9847201C4F4B98475C
S11304004F4B3079002198472B681C209B0706D559
S113041003B03CBC90469946A246AB46F0BD434669
S11304202C6817381C40F3D13868C84782464549C0
S1130430454B98475346454A9B009F5000239A4694
S1130440252352463C767C767C83BC83FA54113B4C
S11304503C622B603D6801AC281CC8478023237094
S1130460534663704346A37053468146E3707069F4
S1130470B3699A46002856D0022320706370000C9A
S1130480334BC0B2211C9B4698475346002B44D0A3
S1130490534623700223637098465346180CC0B227
S11304A0211CD847B389FB80F3893B81327C8023AC
S11304B0002A29D0B268002A00D01343327F002AD0
S11304C002D08022D2051343326A002A00D013439B
S11304D02A68484613432B6080230D305B006B6011
S11304E0C0B21C4B9847FA233168DB0059434B1EBA
S11304F01818194B9847431F4020FF2B00D987E752
S11305009BB26B81002083E74246144B9B781A40D0
S1130510131C5A1E9341DB01CCE7281C0121104B0C
S113052098478246B4E7281C00210D4B9847A3E75F
S113053065280000000400402531000089310000D6
S1130540BD2600008D050000CD28000020030020FA
S11305508D320000E9310000A93400000020004180
S11305600527000010B5838B021C0520002B00D04A
S113057010BD101C01220B1C8272C2725A88098899
S11305800433014CA047F3E7CD02000070B5A04B43
S11305908000C458657E237E26681D40638B002B33
S11305A003D1A38B002B00D072E0638B002B07D008
S11305B0A38B002B04D12533E25C052A00D1C2E0D1
S11305C0638B002B1FD0A38B002B1CD0338A9B067C
S11305D000D4B4E02423E35C002B00D0D1E0338AC0
S11305E05B0700D52DE1638BA28B9B1A9AB2A38B78
S11305F0013B9BB2A383338ADB0BFCD1236A9B1898
S11306001B78DBB23376638B002B03D0A38B9BB2B6
S1130610002B1DD02523E25C052A18D0E25C002AB9
S113062015D00322327300226283A283E35C412B40
S11306300BD0A37A002B08D02268138ADB0BFCD1E1
S1130640E0227368D202134373606B071CD470BD3D
S11306502522A15C0529DDD11F31605C0128D9D197
S1130660023030736383A354AB0703D5635C012B5F
S113067000D1F5E0EB07CDD52423E35C002BC9D1F1
S1130680E368201C9847C5E76369201C9847DEE7A8
S11306900123B27B134204D0B373338A9B0700D582
S11306A09AE0338A5B0710D525231822E2540023ED
S11306B0A383A37A002B08D02268138ADB0BFCD116
S11306C0C0227368920213437360A38B9BB263834B
S11306D02523E25C052A00D095E71F32A25C002A9C
S11306E000D199E0638BA18B2068591AA38B89B23E
S11306F0013B9BB2A383A38B002B00D0A5E0E37A3C
S1130700021C002B05D080224368D20213434360AD
S11307102268A37A002B63D0138ADB0BFCD1C0229E
S113072043689202134343602268138ADB0BFCD1B3
S1130730236A9C46037E6144DBB20B7063E741226B
S11307402523E2545FE71F32A25CD2B2002A00D014
S113075036E7032131736283E254A37A002B00D17C
S113076078E02268138ADB0BFCD1C0227368920202
S113077013437360EB0700D445E7E368201C9847F4
S113078041E7638BA18B591AA38B89B2013B9BB2BE
S1130790A383A38B002B2CD1E37A321C002B05D02E
S11307A080227368D202134373602268A37A002BF9
S11307B024D0138ADB0BFCD1C0227368920213434A
S11307C073602268138ADB0BFCD1236A9C46337E58
S11307D06144DBB20B7016E741222523E25460E743
S11307E0138ADB0BFCD1802243685202134343601B
S11307F09AE77268074B13407360E2E7138ADB0BD6
S1130800FCD180227368520213437360D9E7C04657
S113081020030020FFFFFBFF2268118A49071CD434
S1130820638BA18B5B1A99B2A38B013B9BB2A3830D
S1130830138ADB0BFCD1236A5B181B78DBB21376BB
S1130840E1E61E222523E254DDE64268064B13400E
S1130850436069E70123B3738CE71E22E254D2E6B6
S11308602369201C9847D5E6FFFFFBFF102310B532
S1130870374A82B091690B43364993610B78102251
S1130880DB0902D0101C02B010BDC3780732002B64
S1130890F8D004799C42F5D844799C42F2D80B787C
S11308A0153A93430B70CB795BB2002BFBDB437897
S11308B0002B01D10022E5E7041C837801A90B7009
S11308C00120254B9847254B012098472378002B7E
S11308D002D00120224B9847E3782279013B1D493D
S11308E0002A2FD004200A7802430A702279013AA0
S11308F0824013431748C179164A49B20029FADBEA
S1130900DBB253706379002B13D12378114A002B87
S11309100AD0802311780B4313700E4AD3795BB24B
S1130920002BFBDB0022ADE7022113780B4313708D
S1130930F3E7D17949B20029FBDB013B054ADBB27D
S11309409370E2E704200A7882430A70D2E7C04633
S113095000040040001000402531000089310000EF
S1130960B9310000012208B5034B9A71034B1B688F
S1130970002B00D0984708BD00100040380200202A
S113098000B583B000226B4669461A70064B684670
S11309905B68CA70DB061B0F8B70044B0A714A70CC
S11309A0984703B000BDC046004000410501000067
S11309B0F0B54F464646051CC0B491B07E4B684620
S11309C00021402298472B1C7C4C23439B0700D0DA
S11309D0BEE00023191C2A1D944259410A1C211D02
S11309E08D425B411343DBB2002B00D1B0E02B6896
S11309F01A0A627023701A0C1B0EA270E3706B68E3
S1130A001A0A237162711A0C1B0EA271E3716C4DE8
S1130A102B78002B00D180E0012B75D1694F3E6803
S1130A20002E71D0402E00D9A3E0674B9846197868
S1130A30664B9C461B78994200D3A4E05A1AD2B262
S1130A40052A2FD9624862784254472900D1A2E08E
S1130A504A1CA178D2B28154472A00D1A5E00132C0
S1130A60E178D2B28154472A00D19CE00132217945
S1130A70D2B28154472A00D193E001326179D2B2D3
S1130A808154472A00D18AE00132A479D2B2845435
S1130A90472A00D181E001324046D1B20270CA1A1D
S1130AA08B4201D9CA1A4832D2B2964230D8F1B236
S1130AB08846904513D8002145486C46C25C625470
S1130AC05C1C473B1A1C531E9A415242131C0131B1
S1130AD02340CAB2DBB29045EFD8624613703D4C56
S1130AE023689846B3B299464246FF2313425ED028
S1130AF0394B404669464A4698472368F3182360B1
S1130B003B689E1B3E6003D10023344A2B70137054
S1130B1011B00CBC90469946F0BDE821304A294FEB
S1130B20126849023A602B4AD8201160274A2D4E98
S1130B301370254A3370137001222B4B80022A70E4
S1130B409847D820311C4022234B8002984766E7FF
S1130B502B7823706B786370AB78A370EB78E370B9
S1130B602B7923716B796371AB79A371EB79E371A1
S1130B704DE7154B402698461978144B9C461B7834
S1130B80994200D25AE74820CA1A801AC0B20528EE
S1130B9000D957E788E700225BE700227CE70022C0
S1130BA073E700226AE7002261E7002258E7404623
S1130BB00D4B98479CE7C0465F3800003C0200207C
S1130BC08C000020940000203A0000204100002006
S1130BD044000020900000208D010000400000200F
S1130BE03C000020980000207902000038B5D82588
S1130BF0054CAD022070054B281C9847281C211C6D
S1130C004022034B984738BD980000207902000029
S1130C108D01000030B58BB000236A46694613711C
S1130C20137480220B770893D7338B84B9330093E2
S1130C30184B9203CB81029216230122164D524285
S1130C40059301338A8106936A46281C1349144B81
S1130C5098472C68238ADB0BFCD1226802331343A8
S1130C60236028680F4B98471F2318401E3B83407E
S1130C70181C0D4B10211860E888002302E0013392
S1130C80834204D2228A1142F9D00BB030BD102322
S1130C902382FAE7102700004402002000140042D7
S1130CA0B90300001129000000E100E070B516242A
S1130CB000230E4E86B0019002916C44301C01A9B1
S1130CC00B4D03922380A84709E0301C01A9A847D3
S1130CD0238801339BB223802388642B04D000280B
S1130CE0F3D1002006B070BD0120FBE744020020D0
S1130CF06505000010B5074C074823788371074B3E
S1130D009847074B98470222064B00201A7000238D
S1130D10237010BDD9000020DC000020A5180000BD
S1130D20D9180000F701002000B583B000236A46FB
S1130D306946137001224A7003328A700B710832BB
S1130D404B716846014BCA709847FEE76D08000076
S1130D5038B5BD4CBD4B201C98472378FA2B0ED0D8
S1130D60FC2B0AD06378002B12D1A378062B00D970
S1130D7084E0B74A9B00D3589F46042038BDB54B46
S1130D801B78002B19D11022B34B02201A70F5E7FF
S1130D90012B1DD0022B00D18AE0032B00D18EE061
S1130DA0042B00D1EAE0602B6DD0502B00D126E259
S1130DB00122A94B02201A70E0E7201CA74B984798
S1130DC0002302206370A370E37023716371D5E77D
S1130DD0A378402B00D113E147D9422B00D172E113
S1130DE000D25BE1642B00D167E1652B46D1E37847
S1130DF08022002B00D1D1E0994B02205A61BDE73B
S1130E00984B1A70E3781E2B00D9DFE0964A1370D2
S1130E100220B3E7FF20954B98470220AEE700235A
S1130E20E37002332371013B63710220A6E78D4B0B
S1130E3002201B78E3708C4B1B7823719EE7864D50
S1130E40201C2B78A3718A4B98478A4B984702221F
S1130E50894B0A201A7000232B70884DA847002064
S1130E60A8470028FBD1864B9847022B00D1C0E04D
S1130E70032B00D1B6E0012B00D1ACE00222764B6B
S1130E8002201A707AE7A378012B00D18AE0022BA2
S1130E9000D1F2E10020032B00D06FE7794B984793
S1130EA00A20764DA8470020A8470028FBD1DAE79E
S1130EB0A278002AA4D0684A022013705EE7A378BF
S1130EC0012B00D122E1002B00D16CE1102B00D1C9
S1130ED04CE1112B9CD1E078042899D80130C4B29C
S1130EE0032C00D164E200D837E2042C00D169E27B
S1130EF0052C00D061E28022594B5A6162485F4D53
S1130F00A8470020A8470028FBD1032C00D14AE2BF
S1130F1000D81BE2042C00D181E2052C00D079E238
S1130F2080224F4B9A615948A8470020A8470028BF
S1130F30FBD1032C00D14EE200D81CE2042C00D1DA
S1130F4053E2052C00D04BE28022454B5A61FA2033
S1130F504000A8470020A8470028FBD1032C00D15B
S1130F6010E200D8A7E1042C00D117E2052C00D030
S1130F700EE280223A4B02209A61FFE6E378A278DF
S1130F80591E8B41DBB2012A00D1B9E0022A00D0FC
S1130F903EE78022D201002B00D02DE7304B022007
S1130FA09A61EBE62B4A02201370A3791A0663793F
S1130FB01B041343E2781A4323791B021343344A74
S1130FC013600023E37023716371D7E61E22264B5E
S1130FD002201A70D2E68022E3785203002B00D05C
S1130FE00AE7DBE78022E3781202002B00D003E754
S1130FF0D4E78022E3789203002B00D0FCE6CDE70F
S1131000E3788020002B00D111E18022214B920152
S11310109A618022124952018A619A611E4A1278A9
S1131020002A00D141E1022A00D130E18020802150
S11310304024184B0A4A0001C900986199619C61D7
S113104090619161022099E6DC00002051180000B3
S11310507038000040000020D9000020B1090000D1
S113106000440041D800002000000020ED0B0000E7
S1131070A5180000D9180000F70100208122000003
S1131080290D0000F50C0000102700003075000049
S11310903C0000208044004134020020E378002B0F
S11310A000D1A1E08022D34B92019A618022D249DF
S11310B052018A6102209A6160E6E3782022002BC3
S11310C000D099E66AE7E3785A1E9341CB4ADBB233
S11310D01278002A00D0CAE0002B00D0E7E080227A
S11310E0C44B5A61802080214024C24BC24A000173
S11310F0C900586159615C615061516102203DE64B
S113110080229201002B00D076E647E7BC4B1B7887
S1131110002B00D0B2E68022B64B92019A61802265
S1131120B54952018A619A61B64BB74D1878A84700
S11311300020A8470028FBD1B04B1B78002B00D11E
S1131140B5E0022B00D071E78022AA4BD2019A614C
S1131150802212029A61802252009A6192189A6146
S1131160F13AFF3A9A6170329A615FE7E0780428B5
S113117000D94DE60130C4B2032C00D126E100D8D9
S1131180F2E0042C00D153E1052C00D04BE1802285
S1131190994B5A61FA209C4D4000A8470020A8476B
S11311A00028FBD1DAE6964B1B78002B00D065E6CD
S11311B0924B1B78002B00D0AAE080228D4B5A6101
S11311C08020802140248B4B00018B4AC900586148
S11311D059615C618B4B5061516118788A4DA84705
S11311E00020A8470028FBD18022824B92015A613B
S11311F08022814952014A6102205A61BEE5E378A6
S11312005A1E9341A278DBB2012A64D0002A5AD034
S1131210042A00D0FCE5002B00D18EE08022754B1F
S113122092019A61802252019A610220A6E58022ED
S1131230704B92015A6180226F4952014A615A618E
S11312406E4A1278002A10D0022A00D04AE780227F
S1131250D2015A61802212025A61802252005A61DC
S113126092185A61F13AFF3A5A6158613AE7022AF0
S113127039D0002B00D135E7D8E6644B1B78002B1E
S113128000D080E50220624B9847022076E5802258
S1131290D2019A61802212029A61802252009A61DC
S11312A092189A61F13AFF3A9A619861BEE68022F7
S11312B0504B9A61BAE6022C6AD180224E4B9203BB
S11312C09A61201C5AE580229201002B07D0494BD9
S11312D002209A6152E580225201002BF7D1454B3E
S11312E002205A614AE5002B00D02DE78022414BB1
S11312F0D2015A61802212025A61802252005A613C
S113130092185A61F13AFF3A5A6170325A61E9E629
S1131310022B00D054E78022364BD2015A6180223E
S113132012025A61802252005A6192185A61F13AAB
S1131330FF3A5A6170325A6142E780222D4B920182
S11313405A61802252015A61022017E5022C61D1B0
S11313508022294B92039A61E5E5022C2DD180224B
S1131360254B92035A61C9E5022C5CD18022224BA1
S113137092035A610EE7022C32D180221E4B920353
S11313805A61E4E580221C4B12029A610220F5E4C2
S11313908022194B52039A610220EFE42022164B5B
S11313A002209A61EAE48022134B12029A61BAE5A0
S11313B08022114B12025A61A0E580220E4B520387
S11313C05A619BE520220C4B5A6197E580220A4B17
S11313D012025A61DEE68022074B12025A61B6E518
S11313E08022054B52035A61B1E52022024B5A6117
S11313F0ADE5C04680440041004400413402002071
S1131400D8000020000000208122000040000020BD
S1131410ED0B00008022084B52039A6183E52022E1
S1131420054B9A617FE58022034B52035A61B1E672
S11314302022014B5A61ADE60044004110B50F4C27
S11314400F4B201C9847002808D10E4B6070A070E9
S1131450E070207160711870023010BD01280AD04C
S1131460022804D00338431E98414000F5E7A279CE
S1131470044B1A70F1E70020EFE7C046DC000020BF
S113148099140000D900002008B5024B98470020A9
S113149008BDC04689160000F8B54F464646C82226
S11314A0C0B46C4D041C6C4B28781A70012800D110
S11314B081E0002829D0022804D000200CBC9046EA
S11314C09946F8BD654E3378002B00D1ACE01A1C68
S11314D0062B00D906220A21D2B26170012A11D04A
S11314E00131A170022A0DD00131E170032A09D023
S11314F001312171042A05D001316171062A01D11B
S11315000131A1719B1A3370D8E701216278E77821
S1131510534B114052085A701970DF70514B1A80A6
S1131520514A5F805A60587298721872002900D12B
S113153086E000224D4B494E188099464C4BE27090
S113154018802271201C6270A2706271A271984688
S1131550484B37709847484B98470A20474FB8473D
S11315600020B8470028FBD14B4618804346327808
S11315701880131C052A6BD8DBB26270002B11D0C3
S11315800A21A170012B0DD00131E170022B09D089
S113159001312171032B05D001316171052B01D17A
S11315A00131A171D31A3370022301222B70344B01
S11315B002201A7082E7294E37783A1C062F3DD84C
S11315C0D3B22B4A1188294A1288521AD2B29342B2
S11315D02FD8002B17D06078234A5054012B12D0F7
S11315E0A07851184870022B0DD0E2788A70032B32
S11315F009D02279CA70042B05D062790A71062BAE
S113160001D1A2794A71FB1ADBB23370002B00D0EE
S113161053E71B4A2B701370124B07CB194B984797
S1131620431E9841C0B249E7154A2B70137003203A
S113163044E70023124A2B7013703FE70622BFE7EA
S1131640064B1F70094B1880094B1880012035E7A1
S1131650052391E7E8010020FA010020E5010020BC
S1131660780200206C020020E4000020EA0100203F
S1131670E6010020A5180000D9180000812200000E
S1131680E4010020AD0C0000054B1A78002A06D0B6
S1131690044A1278002A02D103491A700A7070476A
S11316A0E4010020FA010020E801002030B52549BA
S11316B00B78002B13D1244B24481C780378112B6E
S11316C033D8234D9A00AA589746FE2C32D021498C
S11316D00A78A2180A70204AD4540133037030BD2A
S11316E01C4A1378A3421BD0002313700370F6E73F
S11316F018490A78A2180A70174AD2180A3A01330C
S113170014700370EBE7FE2C14D0FD22A31D1342CA
S1131710E5D1104B1C70104B1C700B230370DEE7DB
S113172001230B700D490B70DEE70023094A037097
S11317301370D4E7FE23074A1370074A1370FD3B66
S11317400370CCE735020020EE010020F0010020F8
S11317508C380000EC0100200C000020F701002070
S1131760802370B5DB058CB0694600930023FF220B
S113177001938B72CB728B75CB7506930B774B777A
S1131780C4230A8196229B030393012392010492AA
S113179001225B420893099337330A931E4D0133A8
S11317A01E4C0A754A750B93281C1D496A46A047AE
S11317B00028F9D12E681B4B301C98471F23184072
S11317C01E3B8340181C184B18602B681C8AE40BC2
S11317D0E403A4B2002CF9D102233268281C134379
S11317E0336012490122124B984721220223A95C3B
S11317F036200B43AB546B466A465C7001239370EE
S11318000323D47069460B4C1370A04737206946F4
S1131810A0470CB070BDC0467C0200209D2900008A
S1131820001C00421129000000E100E0AD16000098
S1131830F92B00008D32000008B502480249034B21
S1131840984708BD7C020020EE010020112C000006
S113185010B5830712D100231C1C114A011D8A42B2
S11318605C41211C141DA0425B410B43DBB2002BE5
S113187005D0136803605368436010BD084A1378A9
S113188003705378437093788370D378C37013795B
S113189003715379437193798371D379C371ECE7FD
S11318A00C00002001780B4B10B5197042785A7067
S11318B084789C70A2188A18C178D970521801795A
S11318C019715218417959715218817999715118C5
S11318D0D97110BD0400002008B50348034908224B
S11318E0034B984708BDC0467C020020040000203A
S11318F04D2C0000931C9B001950022A09D0032A86
S11319000CD0012393401A1C037E1A430276002054
S113191070471023027E13430376F8E72023027EE8
S113192013430376F3E7C04670B50126154B1D68D3
S11319302B682C7E9B7B1C406B7E1C4026421AD15C
S11319400226264211D11026264208D120262642FC
S113195004D06B69281C98472B689E7370BD2B6953
S1131960281C98472B689E73F0E7EB68281C98475F
S11319702B689E73E7E7AB68281C98472B689E7317
S1131980DEE7C046A002002070B50126154B5D6855
S11319902B682C7E9B7B1C406B7E1C4026421AD1FC
S11319A00226264211D11026264208D1202626429C
S11319B004D06B69281C98472B689E7370BD2B69F3
S11319C0281C98472B689E73F0E7EB68281C9847FF
S11319D02B689E73E7E7AB68281C98472B689E73B7
S11319E0DEE7C046A002002070B50126154B9D68B5
S11319F02B682C7E9B7B1C406B7E1C4026421AD19C
S1131A000226264211D11026264208D1202626423B
S1131A1004D06B69281C98472B689E7370BD2B6992
S1131A20281C98472B689E73F0E7EB68281C98479E
S1131A302B689E73E7E7AB68281C98472B689E7356
S1131A40DEE7C046A002002070B50126154BDD6814
S1131A502B682C7E9B7B1C406B7E1C4026421AD13B
S1131A600226264211D11026264208D120262642DB
S1131A7004D06B69281C98472B689E7370BD2B6932
S1131A80281C98472B689E73F0E7EB68281C98473E
S1131A902B689E73E7E7AB68281C98472B689E73F6
S1131AA0DEE7C046A002002070B50126154B1D6973
S1131AB02B682C7E9B7B1C406B7E1C4026421AD1DB
S1131AC00226264211D11026264208D1202626427B
S1131AD004D06B69281C98472B689E7370BD2B69D2
S1131AE0281C98472B689E73F0E7EB68281C9847DE
S1131AF02B689E73E7E7AB68281C98472B689E7396
S1131B00DEE7C046A002002070B50126154B5D69D2
S1131B102B682C7E9B7B1C406B7E1C4026421AD17A
S1131B200226264211D11026264208D1202626421A
S1131B3004D06B69281C98472B689E7370BD2B6971
S1131B40281C98472B689E73F0E7EB68281C98477D
S1131B502B689E73E7E7AB68281C98472B689E7335
S1131B60DEE7C046A002002070B50126154B9D6932
S1131B702B682C7E9B7B1C406B7E1C4026421AD11A
S1131B800226264211D11026264208D120262642BA
S1131B9004D06B69281C98472B689E7370BD2B6911
S1131BA0281C98472B689E73F0E7EB68281C98471D
S1131BB02B689E73E7E7AB68281C98472B689E73D5
S1131BC0DEE7C046A002002070B50126154BDD6992
S1131BD02B682C7E9B7B1C406B7E1C4026421AD1BA
S1131BE00226264211D11026264208D1202626425A
S1131BF004D06B69281C98472B689E7370BD2B69B1
S1131C00281C98472B689E73F0E7EB68281C9847BC
S1131C102B689E73E7E7AB68281C98472B689E7374
S1131C20DEE7C046A002002070B588B069461D4BAF
S1131C3070CB70C170CB70C130CB30C1009B83427C
S1131C4018D0019B834218D0029B834218D0039B77
S1131C50834218D0049B834218D0059B834218D03A
S1131C60069B834218D0079A0023824217D0181C7F
S1131C7008B070BD0023DBB2F9E70123DBB2F6E75D
S1131C800223DBB2F3E70323DBB2F0E70423DBB286
S1131C90EDE70523DBB2EAE70623DBB2E7E7073328
S1131CA0DBB2E4E7D4380000F0B55F464D46564653
S1131CB04446F0B48DB004AC231C9146B44A061CCF
S1131CC00D1C83CA83C383CA83C303CA03C3049B8F
S1131CD09D4200D123E163689D4200D124E1A368C1
S1131CE09D4200D122E1E3689D4200D120E12369B5
S1131CF09D4200D11EE163699D4200D11CE1A369AC
S1131D009D4200D11AE100239A469B46E3699D4215
S1131D1000D115E19E499F4B2031082202A8984624
S1131D2098479B4910222831201CC0470023B360E8
S1131D30F36033617361337673765346964A9B003E
S1131D409E504B4635609B78082B0CD033712B8802
S1131D5001220520DB070BD50DB03CBC904699460B
S1131D60A246AB46F0BD5A461720D207F4D4EDE79D
S1131D70EB7B1730DB06EFD402212B880B40EBD131
S1131D804946097C002900D0EEE04B461B7F002B1E
S1131D9000D0DAE05146814A4900136A615A0B4384
S1131DA013624B469B78082B00D1E9E04B466A4608
S1131DB01B78082113706B4652465B189C5C69467D
S1131DC0201C774B9847201C764B98474B464A4635
S1131DD098881B89034390799278104318434B46A3
S1131DE05B78002B02D080231B0118437F223168CB
S1131DF0CB7B9343FCD14B4628805B7B002B00D1EB
S1131E00A0E0052004224B469B7B002B00D1101C34
S1131E107F223168CB7B9343FCD1FF332B710028A5
S1131E2005D07F223168CB7B9343FCD168714B464C
S1131E30987ADB7A002B01D0102318434B461B7B86
S1131E40002B01D0202318437F223168CB7B93439E
S1131E50FCD17F21A8713268D37B8B43FCD13379C9
S1131E607F21042B07D07F21082B40D07F21002B1A
S1131E7025D0172070E7D37B8B43FCD14A46283307
S1131E80D35C7F222B743168CB7B9343FCD14A46CD
S1131E902933D35C7F222B753168CB7B9343FCD1F0
S1131EA04A462A33D35C7F222B763168CB7B93431B
S1131EB0FCD14A462B33D35C00206B764CE7D37BB2
S1131EC08B43FCD14B467F221B8D2B823168CB7B0D
S1131ED09343FCD14B467F225B8D2B833168CB7BB4
S1131EE09343FCD14B469B8D00206B8334E7D37B1B
S1131EF08B43FCD14B467F229B6A2B613168CB7BA1
S1131F009343FCD14B467F22DB6AAB613168CB7BC8
S1131F109343FCD14B461B6B0020EB611CE7002371
S1131F20DAB293469A46F5E60123F9E70223F7E786
S1131F300323F5E70423F3E70523F1E70623EFE79B
S1131F400723EDE7012000225DE70123002201A918
S1131F508B704B704B46CA704A461B6A526AD8B2A1
S1131F60114B0A70984715E701A9CB704B461B7EAD
S1131F708A700B704B46187D0B4B4A70984704E7E8
S1131F80514601314900136A615A0B4313620DE74C
S1131F90D43800004D380000A002002000040040A6
S1131FA025310000893100008D320000F0B556461D
S1131FB04D4644465F460023F0B4012683B001AC8D
S1131FC00420211C754D2370A3706670A84725203A
S1131FD0211CA847724A136A126A5B0933409206AD
S1131FE000D4A0E0002B00D1AAE06E4B9846002359
S1131FF042461370002201230220211CA270637048
S11320002370A8470423684E1420B361211CA847F9
S113201080235B03B3611520211CA84780239B0305
S1132020B3610F20211CA84780231B02B3610D203C
S1132030211CA84780239B0173610E20211C994613
S1132040A8478023DB01B3612D20211CA8474B4600
S1132050534F0C20BB61211CA84780235B01994688
S1132060B3612C20211CA8474B462B20BB61211CAB
S1132070A84780231B01BB612A20211C9B46A8473B
S11320808023DB00BB612620211C9A46A8474023FD
S11320900B20BB61211C9946A8475B460A20B3610B
S11320A0211CA84753460520B361211CA8472023BF
S11320B00720B361211CA84780230620B361211C9B
S11320C0A8474B460120B361211CA8470223B361F2
S11320D043461B78022B3DD0002B2BD000232E200F
S11320E02370211C02336370A8472F20211CA847AA
S11320F02820211CA8472920211CA8472420211C72
S1132100A84743461B78012B20D0002300202370CE
S1132110211C01336370A84703B03CBC9046994628
S1132120A246AB46F0BD002B00D15EE71D4B98469E
S11321301E705FE72720211CA8478023BB61CDE7E1
S1132140184B984602234246137053E72720211C5C
S1132150A847DAE72E20211CA8478023DB01BB61B6
S11321602F20211CA84780231B02BB612720211C90
S1132170A84780232820BB61211CA84780235B003B
S1132180BB612920211CA84780239B00BB6124201C
S1132190211CA8471023BB61B7E7C0468524000073
S11321A080440041340200200044004138B5284AEC
S11321B01378032B41D00133DBB21370254B9847BE
S11321C0254B1A88002A03D01A88013A92B21A8041
S11321D0224B234A188890422DD0013080B2214AE4
S11321E01880214913888B420BD8013313800422B1
S11321F01E4B5A611E4A1378002B01D0013B137009
S113220038BD1C4D2C78002C05D10028F2D10422B5
S1132210164BDA61EEE70130FA21174B9847002993
S11322200DD0164A1378072BE4D9022CE2D10023EF
S11322302B701370DEE70020D1E70023BDE70422F2
S11322400A4BDA610D4A13780133DBB21370EAE703
S1132250FB01002039180000F4010020F8010020DF
S1132260E7030000F2010020B70B00000044004126
S1132270FA010020F701002095370000F601002044
S1132280002804D04300044A9BB213807047024BD9
S113229018884008FAE7C046F4010020002370B50E
S11322A08EB001AA138593711381536193611362F4
S11322B053625385938504339370023B13708023D8
S11322C00021DB0051709172D172117391735173BB
S11322D0117411779380FA212923194CD154201CAD
S11322E01849194B98477F212268D37B8B43FCD133
S11322F01188164E02330B431380154D311C201CDC
S11323000022A847311C201C0222A847311C0322AA
S1132310201CA84720680F4B98471F220E4B1B5CBC
S113232013401E3A111C99400B1C0C490B600123ED
S1132330617E0B43637623685A730EB070BDC0464A
S1132340C002002000200042A91C0000AD210000B2
S1132350F5180000291C00000C39000000E100E021
S1132360F8B5002301260B4C0B4D0C4F2370321C87
S11323709A402969114206D02A619B00DB59002B3F
S113238000D0984723780133DBB223700F2BEED9AA
S1132390F8BDC046DC02002000180040E002002026
S11323A0402310B5144A82B0916903200B43936112
S11323B0002301A90B70114B9847114B0320984738
S11323C00123104A11780B43137053780D4C5BB200
S11323D0002BFADB40220C4B0C48002198471022BA
S11323E00B4B1A60022322781343237063785BB289
S11323F0002BFBDB02B010BD0004004025310000BF
S113240089310000001800405F380000E00200201D
S113241000E100E07047C0460B4B1A68002A05D162
S1132420EFF31081002905D008490A701A680132B7
S11324301A60704772B6BFF35F8F054A1170034A82
S113244001311170F2E7C046FC01002000020020B7
S113245014000020084B1A68013A1A601B68002B0C
S113246009D1064B1B78002B05D00122044B1A70AE
S1132470BFF35F8F62B67047FC01002000020020AA
S113248014000020802200B583B001AB1A700A78D2
S11324905A704A789A708A78191CDA70014B9847F6
S11324A003B000BD8D32000010B54908402300245C
S11324B0814202D2181C10BD1C1C631C091A9BB259
S11324C08842F9D94023FF2CF4D814800023F1E783
S11324D0F0B556464D4644465F46F0B4041C251CF0
S11324E089B012A80678402075438D4206D909B0F8
S11324F03CBC90469946A246AB46F0BD06920D1CE4
S1132500221C002B4FD1301C6A4C0021A047002212
S1132510814690460020002300213F262032924627
S11325201F3A0295041C039340469446C8460D1C6A
S1132530B14605E08A424BD04A46511E89462FD304
S113254020214A46494252183BD4614691400A1C14
S11325504E46614624196D41B140474666462643BE
S1132560174200D0341C029E039F01950094009CE6
S1132570019DA41BBD413E1C019F19430243BE4261
S11325801CD8039EBE4215D00B1C101C0199039A43
S11325908A42CFD9009C019D4A46511E8946CFD21A
S11325A05C42240C02E00024012B18D0069B00207E
S11325B01C809CE7029E009FBE42E5D9191C021CA8
S11325C0E2E749465246521A6146D1400A1CBFE727
S11325D0029A00998A42AFD9009C019DDCE74B0F17
S11325E09846CB009A46301C00230021314CA0476A
S11325F00023059301339C46C1466B461B7D002294
S1132600079300233F279846002318E05C461D1CCF
S1132610221C2B1C241A8D41464602940395009CCF
S11326203443261C994238D835D0B046994220D834
S11326301DD0029C039D221C2B1C013F1FD3202470
S113264064423D192BD46446AC40251C92185B416E
S1132650644666461443BE40A3465446009634403E
S11326604E4635402C43D1D1141C1D1CD0E790425A
S1132670DFD9141C1D1C221C2B1C013FDFD2059B1F
S11326800D4AF61AF60896420FD901330593082B22
S1132690B3D140202BE79042C7D94646C5E7202452
S11326A0E51B6446EC40251CD0E7079B5C033443E0
S11326B0A4B27BE7AD370000FF1F000030B50E4C1D
S11326C083B02378051C002B06D0002904D163783D
S11326D083420FD01D200BE001A90C20074B0D7085
S11326E098470C20064B98470123002065702370FF
S11326F003B030BD0020FBE70402002025310000B8
S1132700893100003A4B984243D00AD9394B984258
S113271017D0394B984232D0384B98421BD0002006
S11327207047374B984220D0364B9842F7D1012955
S113273043D000293FD002293BD00329EFD13248AE
S1132740EEE7012931D000292DD002292FD0032909
S1132750E5D12E48E4E701293FD000293BD00229E6
S113276037D00329DBD12A48DAE701293DD00029F3
S113277039D002292BD00329D1D12648D0E7012909
S113278023D000291FD002291BD00329C7D12248F6
S1132790C6E7012925D0002921D002290FD0032919
S11327A0BDD11E48BCE71E48BAE71E48B8E71E481C
S11327B0B6E71E48B4E70320B2E71D48B0E71D485A
S11327C0AEE71D48ACE71D48AAE71D48A8E71D4829
S11327D0A6E71D48A4E71D48A2E71D48A0E71D4839
S11327E09EE71D489CE71D489AE71D4898E7C046A8
S11327F00010004200180042001C00420014004275
S113280000080042000C004203001F0003000F00F8
S113281003001300030007000300190003000B006A
S113282003000C0003000D0003000E0003001E0053
S11328300300010003000A0003001800030016004F
S11328400300170003000600030012000300100039
S11328500300110003000800030009000300040042
S11328600300050070B586B0011C6846154B70CB9B
S113287070C070CB70C0009B8B4211D0019B8B4207
S113288011D0029B8B4211D0039B8B4211D0049B2D
S11328908B4211D0059B00208B4210D006B070BD36
S11328A00020C0B2FAE70120C0B2F7E70220C0B2AC
S11328B0F4E70320C0B2F1E70420C0B2EEE705302C
S11328C0C0B2EBE7143900007047C04630B50C4D78
S11328D00C4B2A78002A0FD10B4C1C605C609C6066
S11328E0DC601C615C61094C22606260A260E26091
S11328F02261626101222A708000195030BDC046F5
S11329000602002008020020C9280000200300203D
S113291010B5041C82B0064906226846054B984748
S1132920201C054B98476B46185602B010BDC04694
S11329302C3900004D3800006528000008B5024B12
S113294000201B68984708BD0802002008B5024B08
S113295001205B68984708BD0802002008B5024BB7
S113296002209B68984708BD0802002008B5024B66
S11329700320DB68984708BD0802002008B5024B15
S113298004201B69984708BD0802002008B5024BC3
S113299005205B69984708BD08020020F0B54D4644
S11329A0444656465F46F0B4051C854B0C1C8DB05E
S11329B02960081C91469846984701232268061C02
S11329C00520134206D00DB03CBC90469946A24661
S11329D0AB46F0BD0227226817301740F3D1B01C74
S11329E0834078490D360A6AF6B213430B624B46AC
S11329F05B7F06A90B70301C734B9847301C734BDC
S1132A0098474B460021587F714B98474B46DB7AD9
S1132A1008AE6B714B461B7DAB714B465B7DEB7116
S1132A202B68181C9A46C0474B461B683780039393
S1132A304B46DB680D3004934B469B7D9B464B46CF
S1132A405A680592002A00D18BE080235B059A42E4
S1132A5000D09BE04B46DB7D0021002B00D1A2E09F
S1132A602A68059F138ADB0BFCD15346039A5981CC
S1132A70049B13431F435B465B071F434B46DB7DAD
S1132A80002B01D104331F434B465B7D1A044B4694
S1132A901B7D5B0413434A46D17A19431389FF2BE8
S1132AA003D080225204174319434B461B7F002B4B
S1132AB003D1484B9B789B0701D580231F432A6889
S1132AC0138ADB0BFCD1534659602A68138ADB0B4B
S1132AD0DB039BB2002BF9D1524604A917604B7358
S1132AE0CB738B734B461B6A802208934B465B6AFD
S1132AF0002773604B469B6A0A73B3604B46DB6ADC
S1132B00F360354B9B46354B9A46BB00F058F9B2FF
S1132B10002838D0431C05D004AB1873000CC0B295
S1132B2007A9D0470137042FEFD100230022EB83FC
S1132B30AB60EB602B61AB616B61AB832033EA5418
S1132B400133EA540133EA540133EA542868C04794
S1132B50041C234B23499847234BA400E550002031
S1132B6031E74B46DB7D002B12D0102300934B46FC
S1132B7018699969321C00231C4FB847002800D0FB
S1132B8021E731886CE7201CD847C3E7002167E7B9
S1132B904B461B69C0B21F1C154B98471023011CE0
S1132BA00093381CE6E74B461B69C0B21F1C104B50
S1132BB09847321C011C0F4B381C9847DEE7C0466F
S1132BC06528000000040040253100008931000020
S1132BD0BD26000000200041052700008D320000C2
S1132BE0CD280000992C000020030020D1240000EF
S1132BF0E9310000A9240000931C9B001950012313
S1132C00934020211A1C435C1A4342547047C04627
S1132C1070B5041C0B4B0E1C05689847A38B002B46
S1132C2003D0094B9847052070BD0123A383064BAD
S1132C309847222305226661E2541E3B6B730020F1
S1132C40F2E7C0461924000055240000F8B5051C1D
S1132C500E1C141C1720002A00D1F8BDEB79053096
S1132C60002BFAD00A4B2F689847EB8B002B03D02C
S1132C70084B98470520F0E7064BEC83984723233D
S1132C800522AE61EA54223B7B730020E5E7C0468F
S1132C901924000055240000F8B5494B8000C5589C
S1132CA02C68238ADB0BFCD1A67B637B20221E408D
S1132CB02123AF5CEB5C1F400123334218D0EA8B25
S1132CC0002A36D0AA69511C1378A9616979DBB24C
S1132CD0012950D09BB2DB05DB0D2383EB8B013B39
S1132CE09BB2EB83002B03D1013323730133637352
S1132CF00223334205D0002223732133EA54FB0715
S1132D0035D40423334211D0AA8B002A0FD0228A4F
S1132D10D2B251070FD0910733D51A221E33EA5489
S1132D20228A203B134323827B0736D4F8BD2373C6
S1132D30FCE72373DCE7238B6969DB05DB0DDAB27F
S1132D400A706A69511C69616979012931D0AB8BB8
S1132D50013B9BB2AB83002BE8D1042222731E32C9
S1132D60AB54BB07E2D5EB68281C9847DEE7281C68
S1132D70AB689847C5E75178023209020B43AA6150
S1132D80A9E713420DD1D307CED513222223EA5447
S1132D90228A213B13432382C6E72B69281C9847C8
S1132DA0C4E71E222223EA54228A1E3B13432382B1
S1132DB0BAE71B0A53706B6901336B61C7E7C046FE
S1132DC02003002010B5072823D8174B80001B5878
S1132DD09F468020000210BD144B1869FBE7144B7A
S1132DE0186A144B8005800FC340181CF3E70F4B7F
S1132DF0D868F0E702200D4C23681840EBD010226D
S1132E000B49CB681A42FCD023685B0703D40A48F9
S1132E10E1E70020DFE7094B00209847A3681B0483
S1132E201B0C5843D7E7C046343900002002002069
S1132E300008004000127A00006CDC02E931000056
S1132E40C222F0B556464D4644465F46614BD20019
S1132E50F0B49A601E22604900264B6885B0934303
S1132E601A3A13434B60032301AC5C4D2370F0B258
S1132E70211C0136A8471C2EF9D1594B9A69072306
S1132E801205120F022A05D9564B1B689B0E3F2BC5
S1132E9000D19CE0524A92691205120F022A00D90D
S1132EA08BE0F8221B02520113403F224E4F134382
S1132EB07B6000233B604D4BBB6004233A68454E66
S1132EC0134340223B60336A934340321343484ADE
S1132ED0134002223362336A13433362454B9847EB
S1132EE000239846637006239B462370434623724F
S1132EF0637280235B0063603F4B211C01209A4670
S1132F0098473E4B01209946984701236360434606
S1132F1063705B4623704346211C02202372637254
S1132F20D0470220C84701236360434663705B4671
S1132F3023704346211C042023726372D04704206B
S1132F40C8470123211C00202370A8472C4B0020D4
S1132F509847022210213B6813433B603B687E3252
S1132F6093439BB2B384F2681A4B1142FBD0BA6804
S1132F70D021DA627A689A623A6892B29A841A1C08
S1132F80D3680B40D02BFBD100231E4A211C1372A3
S1132F9053729372D372012263702372637200209E
S1132FA0073362602370D0470020C84705B03CBC9B
S1132FB090469946A246AB46F0BD3F220A4F9B027B
S1132FC013437B6000233B600F4BBB6075E7203BE2
S1132FD060E7C04600080040004000412531000081
S1132FE0002000412460800020020020B8053F0733
S1132FF0FFFCFFFF0D30000031300000E130000025
S11330008931000000040040B8053F1C0823064A2B
S113301091690B43936101230121044A13701378CE
S11330201942FCD17047C04600040040000C004027
S113303070B50D784B782D02061C041C0543002B3B
S113304002D08023DB021D434B7A002B02D0802365
S11330501B031D43486801280FD9431E034031D187
S1133060022805D00222013352009042FBD81B02F1
S113307033431C1C80235B031D430B7A002B02D0BB
S113308080239B031D43124A53785BB2002BFBDB66
S1133090104B9847104B0E491E704A780C4B52B295
S11330A0002AFADB1A1C9C60537809495BB2002B96
S11330B0FADB80234A685B0213401D434D60074BD3
S11330C0984770BD802304029B0234431D43D4E718
S11330D0000C004019240000080C00405524000096
S11330E010B5041C0B4A53785BB2002BFBDB0A4B74
S11330F098470A4B07491C704B78064A5BB2002B71
S1133100FADB8021536849020B435360044B984710
S113311010BDC046000C004019240000040C0040FF
S11331205524000038B5041C0D78114B2D020543BD
S11331309847104B104A1C705088104B518800055A
S11331400B40538051880E4B000F0B40802153805D
S1133150C9015388084C0B42FBD16188074B02021A
S11331600B4013436380ADB2064B9847658038BD6E
S113317019240000020C0040000C0040FFF0FFFF87
S1133180FFBFFFFF5524000010B5041C064B9847F1
S11331908021064B064A1C705388C9010B43538097
S11331A0044B984710BDC04619240000020C00408F
S11331B0000C00405524000010B5041C064B984731
S11331C0064B074A1C70802351881B020B43538013
S11331D0044B984710BDC04619240000020C00405F
S11331E0000C004055240000F0B54746041C80B490
S11331F01E4EB0471E4B1C701E4C1F4B65889846D4
S11332002D052D0F984763785BB2002BFBDBB0478D
S11332101A4B184A1D705378164C5BB2002BFADB1C
S11332206068174BC004C00E9847071C134B1D70F1
S11332306668144BF602F60F1D7063785BB2002BC0
S1133240FBDB0C4B9968090A8CB2C047002E05D0F1
S1133250611CCF40381C04BC9046F0BD012CF9D948
S1133260381C211C084B9847071CF3E7192400005D
S1133270020C0040000C004055240000040C0040E7
S1133280C52D0000080C0040A934000070B5C20927
S11332900023002A04D12F4A43099446DB016344E6
S11332A01F2210401E3A8240101CCA78002A31D1D5
S11332B00C78802C47D080222406520214434A788A
S11332C00225161CAE4307D18A78002A37D1802202
S11332D09202144358604A78013A012A35D9A0254C
S11332E00204ED05120C2A43D02522439A622D06CE
S11332F0020C2A4322439A62CA78002A09D1620343
S113330003D58A78012A23D058614A78013A012AE0
S113331013D970BDA0240204E405120C2243D02466
S1133320586024069A62020C22439A62CA78002AE0
S1133330EFD14A78013A012AEBD89860E9E7C02234
S1133340D2021443C6E70024B9E7034A1440C6E78F
S11333509861DAE700440041FFFFFBFF7047C04675
S113336008B5054B9847054B9847054B9847054BBF
S11333709847054B984708BD412E000015240000CE
S11333805D330000A12300005D330000FEE7C0466A
S11333901449154808B5814209D0144B984206D205
S11333A0C243D218920801329200114B9847114837
S11333B0114B984207D2C243D218920801329200AC
S11333C000210E4B9847FF210D4B0E4A8B4393600F
S11333D080230D4A51680B4353600C4B98470C4BA8
S11333E09847FEE7883900000000002018000020FC
S11333F04D38000018000020380300205F3800001A
S11334000000000000ED00E0004000410138000031
S113341015340000F0B557464E464546154BE0B40A
S11334209847154B9847154B9847154B9847154B9C
S11334309847154B9847154B154C9A46154B164D06
S11334409946164B164F9846164E2378DBB2042B3A
S1133450FBD89B00EB589F46B8472070F5E7C04760
S11334602070F2E7C8472070EFE7D047EDE7B04798
S11334702070EAE761330000AD1F00009D220000C8
S113348061170000150C0000810900008914000078
S113349035020020510D000054390000F50C0000E5
S11334A0290D00003D140000002243088B4274D310
S11334B003098B425FD3030A8B4244D3030B8B4231
S11334C028D3030C8B420DD3FF22090212BA030C3A
S11334D08B4202D31212090265D0030B8B4219D31B
S11334E000E0090AC30B8B4201D3CB03C01A52413B
S11334F0830B8B4201D38B03C01A5241430B8B4283
S113350001D34B03C01A5241030B8B4201D30B036B
S1133510C01A5241C30A8B4201D3CB02C01A524192
S1133520830A8B4201D38B02C01A5241430A8B4255
S113353001D34B02C01A5241030A8B4201D30B023E
S1133540C01A5241CDD2C3098B4201D3CB01C01A58
S1133550524183098B4201D38B01C01A5241430962
S11335608B4201D34B01C01A524103098B4201D350
S11335700B01C01A5241C3088B4201D3CB00C01ABD
S1133580524183088B4201D38B00C01A5241430835
S11335908B4201D34B00C01A5241411A00D201465A
S11335A0524110467047FFE701B5002000F0FCF8D7
S11335B002BDC0460029F7D003B5FFF775FF0EBC66
S11335C04243891A1847C04603460B437FD400225E
S11335D043088B4274D303098B425FD3030A8B42A3
S11335E044D3030B8B4228D3030C8B420DD3FF220D
S11335F0090212BA030C8B4202D31212090265D0DB
S1133600030B8B4219D300E0090AC30B8B4201D38D
S1133610CB03C01A5241830B8B4201D38B03C01AD4
S11336205241430B8B4201D34B03C01A5241030B4B
S11336308B4201D30B03C01A5241C30A8B4201D3FC
S1133640CB02C01A5241830A8B4201D38B02C01AA7
S11336505241430A8B4201D34B02C01A5241030A1E
S11336608B4201D30B02C01A5241CDD2C3098B4203
S113367001D3CB01C01A524183098B4201D38B0180
S1133680C01A524143098B4201D34B01C01A524123
S113369003098B4201D30B01C01A5241C3088B4268
S11336A001D3CB00C01A524183088B4201D38B0053
S11336B0C01A524143088B4201D34B00C01A5241F5
S11336C0411A00D201465241104670475DE0CA0FCC
S11336D000D04942031000D34042534000229C468C
S11336E003098B422DD3030A8B4212D3FC22890196
S11336F012BA030A8B420CD3890192118B4208D36C
S1133700890192118B4204D389013AD0921100E0CD
S11337108909C3098B4201D3CB01C01A52418309E1
S11337208B4201D38B01C01A524143098B4201D30E
S11337304B01C01A524103098B4201D30B01C01A39
S11337405241C3088B4201D3CB00C01A52418308B3
S11337508B4201D38B00C01A5241D9D243088B4209
S113376001D34B00C01A5241411A00D201466346AC
S113377052415B10104601D34042002B00D5494210
S1133780704763465B1000D3404201B5002000F04F
S11337900BF802BD0029F8D003B5FFF715FF0EBCE6
S11337A04243891A1847C0467047C046F0B54F4691
S11337B0464605042D0C2C1CC0B41704160C3F0CF3
S11337C09946030C7C4375435F4373437D19260C70
S11337D0AD199C46AF4203D980235B029846C4448A
S11337E04B465143434324042E0C240C2D046644BD
S11337F02C1959188919201C0CBC90469946F0BD07
S11338000E4B70B500251E1C0D4CE41AA410A542E5
S113381004D0AB00F35898470135F8E700F0A4F85A
S1133820084B00251E1C084CE41AA410A54204D021
S1133830AB00F35898470135F8E770BD74390000C0
S1133840743900007439000078390000002310B581
S1133850934203D0CC5CC4540133F9E710BD031C7C
S11338608218934202D019700133FAE770470000BE
S1133870100E00002E0E00001E0E00007C0E000034
S11338807C0E00003E0E0000140E0000061700001F
S1133890CA160000CA160000CA160000CA160000A4
S11338A0CA160000CA160000E01600002A1700001D
S11338B02A1700002A170000F0160000F016000076
S11338C0F0160000F0160000F0160000F0160000DC
S11338D0E0160000002000420024004200280042BC
S11338E0002C004200300042003400420038004204
S11338F0003C00421313141415151616000100029F
S11339000004000800100020004000800D0E0F107D
S11339101112131400080042000C0042001000426F
S11339200014004200180042001C00420708090A63
S11339300B0C0000EE2D0000122E0000122E0000D1
S1133940D22D0000D22D0000D82D0000DE2D000065
S1133950F42D00006A340000643400005E3400007A
S1133960583400006E340000F8B5C046F8BC08BCFA
S11339709E467047CD000000F8B5C046F8BC08BCB0
S10B39809E467047A5000000FB
S113398805000000FE00000000000000FE0000002A
S10B3998000000000100000022
S903339138
